:020000040800F2
:10000000B814002049010008A50900086309000888
:10001000A1090008BD070008F31700080000000050
:100020000000000000000000000000007F11000838
:10003000C107000800000000390A000891120008FA
:10004000630100086301000863010008A90D0008AE
:100050006301000863010008C50700086301000888
:1000600063010008630100086301000863010008E0
:1000700063010008630100086301000863010008D0
:1000800063010008630100086301000863010008C0
:1000900063010008630100086301000863010008B0
:1000A00063010008630100086301000863010008A0
:1000B000F512000819130008411300086301000835
:1000C000630100086301000863010008BD10000817
:1000D00063010008F51500086301000863010008CA
:1000E0006301000863010008630100086301000860
:1000F0006301000863010008630100086301000850
:10010000630100086301000805140008630100088A
:10011000630100086301000863010008630100082F
:10012000630100086301000863010008630100081F
:10013000DFF810D000F0B6FA004800476D22000842
:10014000AFF30080B81400200648804706480047F7
:10015000FEE7FEE7FEE7FEE7FEE7FEE7FEE7FEE777
:10016000FEE7FEE7951200083101000810B50022F5
:1001700000E0521C835C8C5CA34201D1002BF8D1BF
:10018000D8B2E1B2401A10BD2DE9FE4F804681EA97
:100190000300C00F0C46009021F0004123F0004501
:1001A000B8EB0200A94105D24046214690461C46C4
:1001B0000B46024623F00040104347D0270DC7F3FB
:1001C0000A00C3F30A510290401A019040286BDAEA
:1001D000C3F3130040F4801B0098924620B1002323
:1001E000D2EB030A63EB0B0B01985946C0F14002B6
:1001F000504600F098F906460D4650465946019A79
:1002000000F0B0F910EB08006141002487EA1152B8
:1002100084EAE7731A4340D0009A62B3019A012A34
:100220004FEA075215DC001B61EB02014FF0004260
:1002300002EA0752CDE90042001C41F58011324626
:100240002B4600F0B0F903B0BDE8F08F40462146E0
:10025000F9E7001B61EB0201001C41F58013001857
:100260005B412018A2F5001747EB030140EAD57067
:10027000B6196D4111E06D084FEA360645EAC075C2
:100280004FEA0752001B61EB0201001C41F580118F
:1002900049084FEA30000019514132462B4603B05D
:1002A000BDE8F04F00F070B9009801224000002333
:1002B000D0EB020263EBE073009821464FEAE07452
:1002C000B8EB000061EB0401E9E783F000435BE772
:1002D00081F0004158E72DE9FE4F81EA030404F064
:1002E000004421F0004100944FF0000B23F0004344
:1002F00050EA01045ED052EA03045BD0C3F30A540F
:10030000C1F30A552C44A4F2F3340194A0FB025427
:10031000C1F3130141F48011C3F3130343F48013B9
:1003200001FB024400FB034E840A970A44EA81540D
:1003300047EA8357A4FB076802958D0A05FB0785EA
:100340004FEA932C04FB0C542705029D4FEA0658F4
:1003500047EA1637B5EB08056EEB070C870E920ED1
:1003600047EA811742EA8312A7FB0201B6EB0B01B1
:1003700064EB00042B0D43EA0C335E1844EB1C5075
:10038000DA465146E7FB0201C5F313044FEA0B338B
:1003900043EA14534FEA0432019C43EA0603A4F1F2
:1003A0000C040294009CCDE900B400F0FCF803B00A
:1003B000BDE8F08F00200146F9E72DE9F04D81EA14
:1003C000030404F0004B21F0004514464FF0000AEE
:1003D00023F0004150EA050220D054EA01021DD06A
:1003E000C5F30A570246C5F31303C1F31300C1F363
:1003F0000A5640F4801543F48013A7EB0608101B3F
:10040000D64608F2FD3873EB050002D308F1010867
:1004100001E092185B41B8F1000F03DA00200146B9
:10042000BDE8F08D00204FF48011064684460EE0B2
:10043000171B73EB050705D3121B63EB050306437C
:100440004CEA010C49084FEA300092185B4150EA2F
:100450000107EDD152EA030012D082EA040083EAD8
:100460000501084305D0101BAB4106D20122002331
:1004700006E000224FF0004302E06FF0010253104B
:100480001AEB06004CEB085110EB0A0041EB0B0194
:10049000BDE8F04D00F078B830B50B4601460020BD
:1004A0002022012409E021FA02F59D4205D303FA36
:1004B00002F5491B04FA02F52844151EA2F10102B7
:1004C000F1DC30BD2DE9F05F0546002092469B46E9
:1004D00088460646814640241BE02846414647465A
:1004E000224600F02FF853465A46C01A914110D3C5
:1004F00011461846224600F016F82D1A67EB01083F
:100500004F4622460120002100F00DF817EB0009AC
:100510004E41201EA4F10104DFDC484631462A4644
:100520004346BDE8F09F202A04DB203A00FA02F19E
:10053000002070479140C2F1200320FA03F31943D1
:1005400090407047202A04DB203A21FA02F0002173
:10055000704721FA02F3D040C2F1200291400843D3
:1005600019467047202A06DBCB17203A41FA02F0E1
:1005700043EAE07306E041FA02F3D040C2F1200200
:10058000914008431946704710B5141E73F10004DA
:1005900008DA401C41F1000192185B411A4301D175
:1005A00020F0010010BD2DE9F04D92469B4611B19F
:1005B000B1FA81F202E0B0FA80F220329046FFF701
:1005C000B2FF04460F4640EA0A0041EA0B015346D7
:1005D0005A46084313D0114653EA010019D0C8F116
:1005E00040025046FFF7AEFF05460E4650465946BC
:1005F0004246FFF798FF084305D0012004E020465B
:100600003946BDE8F08D0020054346EAE0762C43EC
:1006100037430A986305E40AA0EB08000022FD0AAC
:1006200044EA47540A3002D500200146E9E70105B3
:1006300010196941DDE9084500196941BDE8F04D2F
:10064000A2E7C1F30A52C1F3130140F2FF3341F4B0
:1006500080119A4202DA00200146704740F233438B
:100660009A42A2F2334202DC5242FFF76BBFFFF71D
:100670005ABF000030B5041E71F1000404DB4FF0D6
:100680000044404264EB0101141E73F1000405DBD9
:100690001C464FF00043524263EB0403994208BFEB
:1006A000904230BD064C074D06E0E06840F0010383
:1006B00094E8070098471034AC42F6D3FFF73CFDAE
:1006C000702A0008902A000810B5012000F0D6F921
:1006D000002000F0D3F910BD08B5014600200090BD
:1006E000034800900098084400900098008808BDD6
:1006F000006C004008B500220092044A0092009A63
:1007000002440092009A116008BD0000006C004095
:1007100008B50121242000F0A1F94FF48070ADF854
:10072000000010208DF8030003208DF802006946B8
:100730000C4800F087F80420ADF8000010208DF878
:10074000030003208DF802006946074800F07AF89C
:100750004FF48071034800F002F90421024800F0D0
:10076000FEF808BD000801400014014010B5044621
:100770002CB94FF48071054800F0F1F805E0012C28
:1007800003D10421024800F0EAF810BD000801403E
:100790000014014010B504462CB94FF4807105488F
:1007A00000F0DBF805E0012C03D10421024800F041
:1007B000D4F810BD000801400014014000BFFEE75E
:1007C0007047000010B5012000F028F8E0B10F4894
:1007D0000078401C0D490870087800EBD071491072
:1007E000A0EB410119B10020FFF7D4FF02E0002087
:1007F000FFF7BCFF05480078C82802DD0020034948
:100800000870012000F004F810BD00001200002064
:1008100001490860704700001404014001460020AF
:100820000022074B1B6803EA0102054B14331B68C7
:100830000B4013B10AB1012000E000207047000016
:10084000000401402DE9F041024600250026002069
:1008500000230024002791F803C00CF00F0591F845
:1008600003C00CF0100CBCF1000F03D091F802C0D3
:100870004CEA050591F800C0BCF1000F31D01468B6
:1008800000202BE04FF0010C0CFA00F3B1F800C08F
:100890000CEA03069E4220D183004FF00F0C0CFAA5
:1008A00003F7BC4305FA03FC4CEA040491F803C0C7
:1008B000BCF1280F06D14FF0010C0CFA00FCC2F875
:1008C00014C00AE091F803C0BCF1480F05D14FF005
:1008D000010C0CFA00FCC2F810C0401C0828D1D34F
:1008E0001460B1F800C0BCF1FF0F34DD5468002083
:1008F0002EE000F1080C4FF0010808FA0CF3B1F8F3
:1009000000C00CEA03069E4221D183004FF00F0C79
:100910000CFA03F7BC4305FA03FC4CEA040491F813
:1009200003C0BCF1280F05D100F1080C08FA0CF83F
:10093000C2F8148091F803C0BCF1480F07D100F150
:10094000080C4FF0010808FA0CF8C2F81080401C9F
:100950000828CED35460BDE8F08141617047016141
:10096000704700BFFEE70146CA1701EB9272921072
:10097000A1EB820292B9642091FBF0F200FB12100D
:1009800050B94FF4C87091FBF0F200FB121008B997
:10099000012070470020FCE70120FAE70020F8E77B
:1009A00000BFFEE77047000070B5002100230F2252
:1009B000C47804B3154C246804F4E064C4F5E0641E
:1009C000210AC1F10403CA40447804FA03F184788F
:1009D0001440214309010E4C0678A155047804F017
:1009E0001F050124AC4005786D11AD0005F1E0252F
:1009F000C5F8004109E0047804F01F050124AC406B
:100A0000044D0678761145F8264070BD0CED00E0E7
:100A100000E400E080E100E002490143024A116085
:100A2000704700000000FA050CED00E00149086283
:100A30007047000000000E427047000029B1064ACE
:100A4000D2690243044BDA6104E0034AD26982436B
:100A5000014BDA61704700000010024029B1064ADC
:100A600092690243044B9A6104E0034A926982430B
:100A7000014B9A6170470000001002400149086074
:100A8000704700004004424230B50021002200249B
:100A900000232D4D6D6805F00C0121B1042905D00E
:100AA000082923D105E0294D056022E0274D056086
:100AB0001FE0254D6D6805F47012234D6D6805F437
:100AC0008034022505EB92421CB9214D5543056047
:100AD0000BE01D4D6D6805F400351DB11C4D5543EF
:100AE000056002E0194D5543056002E0174D0560B1
:100AF00000BF00BF144D6D6805F0F0010909154DE8
:100B00006B5C0568DD4045600F4D6D6805F4E06184
:100B1000090A104D6B5C4568DD4085600A4D6D68C3
:100B200005F46051C90A0B4D6B5C4568DD40C5603A
:100B3000054D6D6805F44041890B074D6B5CC56838
:100B4000B5FBF3F5056130BD0010024000127A00DC
:100B500000093D0094000020A400002010B50146CB
:100B60000022002300204A11012A02D1094C2368E7
:100B700006E0022A02D1074C236A01E0054C636AB1
:100B800001F01F02012494401C400CB1012000E040
:100B9000002010BD001002400149086070470000AD
:100BA0008004424201490860704700003C04424210
:100BB0000249096A0143014A11627047001002406C
:100BC000024909888143014A118070470428004086
:100BD0000348008840F01000014908807047000079
:100BE00004280040034800884FF6EF71084001498F
:100BF000088070470428004070B5002600240025B6
:100C000000F07AF806463848B6FBF0F4374800881A
:100C1000A0423CD035490C8040F2B27510E0284625
:100C2000FFF7A1FE40B1B4F5B77F02D3A4F5B774C6
:100C300004E0681C85B206E0A4F26D14681C85B25D
:100C4000B4F5B67FEBD800BF29488580002516E0B3
:100C500027498888FFF787FE30B1012D04D11D2C6C
:100C600001D31D3C09E00CE02248405DA04203D8BE
:100C70002048405D241A00E003E0681C85B21C2C6B
:100C8000E6D200BF681C1A498871601CC8711648FA
:100C9000B6FBF0F100FB11644FF46160B4FBF0F0BF
:100CA000134908704FF46160B4FBF0F100FB114090
:100CB0003C21B0FBF1F00E4948704FF46160B4FB89
:100CC000F0F100FB11403C21B0FBF1F201FB1200FE
:100CD000074988700B46DA799979988800F028F8E6
:100CE00003490872002070BD805101007C00002083
:100CF000A8100020182A0008002103480188001FBE
:100D0000008841EA004070471C280040014600204E
:100D1000064A12880A40D0B2044A121F12880A40BA
:100D200012B108B1012000E0002070470428004003
:100D3000F0B503460C461546642093FBF0F0C6B2AE
:100D4000642093FBF0F700FB1730C1B2132E02DDD5
:100D500001F16400C1B20846CF1701EB977701EBB0
:100D6000A707BAB2072092FBF0F700FB172082B268
:100D70005719601EDFF82CC01CF80000384482B2FE
:100D8000CF1701EB9777BF10A1EB87071FB9032C93
:100D900001DA501E82B2072092FBF0F700FB172009
:100DA000C0B2F0BD0C2A00080EB50120FFF7AEFF5F
:100DB000E0B1FFF721FF01201C4908701C480078B2
:100DC0001C4908701A4840781B49087018488078F8
:100DD0001A49087016488088194908801448807993
:100DE000184908701248C079174908700220FFF7A7
:100DF0008DFFA0B10220FFF7E3FEFFF7FDFE0C48D8
:100E000080780B4949780A4A1278CDE9002102908E
:100E10000748C379827981880CA000F0EDFC052099
:100E2000FFF7CEFE00F02EF90EBD000041000020BD
:100E3000A810002038000020390000203A000020CF
:100E40003C0000203E0000203F000020416C617209
:100E50006D2054696D653A25642D25642D25642027
:100E600025643A25643A25640D0A000029B1064A32
:100E700012880243044B1A8004E0034A128882431A
:100E8000014B1A8070470000002800407CB5002408
:100E900001214FF0C050FFF7D1FD0120FFF7C6FD43
:100EA0000120FFF779FE0420FFF716FC45F2500100
:100EB000884244D0FFF708FC04E0601CC4B20A205A
:100EC00001F022F96120FFF749FE08B9FA2CF4DBA2
:100ED000FA2C01DB01207CBD4FF40070FFF768FEA7
:100EE0000120FFF75FFE00F0CDF800F0D5F80121FA
:100EF0000320FFF7BBFF00F0C5F8FFF769FE49F6D6
:100F0000404000F0AFF800F0BDF801F02DF91348B3
:100F1000807812494978114DCDE900102B78EA7993
:100F2000A979AD8805F2CF75A8B200F029F8FFF7CE
:100F300059FE45F250010420FFF7DCFB07E000F00A
:100F4000ABF801210320FFF791FF00F09BF800F0C0
:100F500007F8FFF751FE0020BDE70000A8100020B1
:100F600008B503208DF8000000208DF801008DF8F1
:100F7000020001208DF803006846FFF715FD08BD4B
:100F80002DE9F05F06460F4690469946DDE90AAB2B
:100F9000002440F2B270864203DB40F63300864202
:100FA00002DD0120BDE8F09F40F2B2750AE028465C
:100FB000FFF7D9FC10B12048044401E01F48044465
:100FC000681C85B2B542F2DB781EC7B2002510E07E
:100FD0001B48405D40F2A321484304EBC014304657
:100FE000FFF7C1FC18B1012D01D116480444681C5B
:100FF00085B2BD42ECDBA8F1010040F2A3214843D9
:1010000004EBC014C9EB4910C0EB092004EB001439
:10101000CAEB0A1004EB80045C4401214FF0C0507D
:10102000FFF70CFD0120FFF701FD204600F00CF852
:1010300000F028F80020B5E70085E2018033E101E7
:10104000182A00088051010000B50246FFF7C0FDD4
:10105000100C03490880091D0A80FFF7C3FD00BD7D
:101060001828004000B50246FFF7B2FDC2F3034066
:1010700003490880091D0A80FFF7B4FD00BD000088
:101080000828004000BF0348008800F02000002826
:10109000F9D0704704280040074800884FF6F771E0
:1010A00008400549088000BF0348008800F0080098
:1010B0000028F9D0704700000428004010B5002433
:1010C0006021104800F02EF8D0B160210D4800F0EA
:1010D0001FF8002260210B4800F03EF800BF06E038
:1010E000084800F049F808490855601C84B20748D0
:1010F00000888442F4DB01226021024800F02CF8D1
:1011000010BD000000300140A800002004000020B5
:1011100010B5002201F00F040123A3409AB2D3437B
:10112000038110BDF0B502460020002400230025F5
:1011300001F00F070126BE40B4B20B1101269E40FC
:10114000B3B2968806EA03051689264016B10DB19A
:10115000012000E00020F0BD30B5002400230C1178
:101160000125A540ABB21AB185881D43858002E0F8
:1011700085889D43858030BD0146888970477047CA
:1011800010B500F001F810BD0CB5002001900090E2
:101190003348006840F480303149086000BF30486F
:1011A000006800F4003000900198401C0190009805
:1011B00018B90198B0F5A06FF1D12948006800F482
:1011C000003010B10120009001E000200090009854
:1011D000012843D12348006840F0100021490860ED
:1011E0000846006820F0030008600846006840F0E8
:1011F000020008601A48406819494860084640687B
:1012000048600846406840F480604860084640688E
:1012100020F47C1048600846406840F4E8104860BC
:101220000846006840F08070086000BF0C48006805
:1012300000F000700028F9D00948406820F0030051
:10124000074948600846406840F00200486000BF17
:101250000348406800F00C000828F9D10CBD0000DC
:101260000010024000200240042808D14FF0E02185
:10127000096941F004014FF0E022116107E04FF0ED
:10128000E021096921F004014FF0E022116170476B
:101290007047000010B51348006840F00100114984
:1012A000086008464068104908400E4948600846F2
:1012B00000680E4908400B4908600846006820F4A1
:1012C000802008600846406820F4FE0048604FF423
:1012D0001F008860FFF754FF4FF00060044908606A
:1012E00010BD0000001002400000FFF8FFFFF6FEF6
:1012F00008ED00E010B50121880700F00FF940B1BA
:101300000121880700F0F8F802480068401C0149F4
:10131000086010BD1400002010B50121064800F03F
:10132000FDF840B10121044800F0E6F803480088C8
:10133000401C0249088010BD000400400600002047
:101340002D4908882D49097801F0800100294ED1E6
:1013500000F00101D1B12949097801F04001A9B19A
:101360002649097801F03F013F290AD1234909881C
:1013700041F08001214A11804FF6FF71204A11800F
:1013800004E01E490988491C1C4A118000F008012C
:1013900069B31A49097801F0400199B117490988E0
:1013A00041F08001154A118013492C310988144AF3
:1013B000118011491031098821F400710E4A103250
:1013C000118014E000210D4A11800D4A11800B4953
:1013D000098841F04001094A11800021064A14326F
:1013E0001180111F098841F40071121F1180002122
:1013F000014A1180704700001008004028000020BA
:101400002A00002010B53648007800F0800000283F
:1014100061D10121334800F081F8B0B13048007843
:1014200000F0400088B12E48007800F03F003F28CF
:1014300006D180202A49087000202B49086004E06A
:1014400027480078401C264908700221254800F0F2
:1014500065F800283FD02248007800F0400060B3D3
:10146000204800F058F821490880084600882049A3
:10147000098888420BDD1A4800783F2807D01B48AE
:1014800000881B490988401A1749086009E0184874
:1014900000884FF6FF71081A144909880844124958
:1014A00008600F48007840F080000D49087011482E
:1014B0000078401C0F4908700DE00A4800F02BF836
:1014C0000B4908800648007840F040000449087045
:1014D0000020054908600321024800F00DF810BD06
:1014E00024000020000C00401C00002022000020EE
:1014F0002000002026000020CA430282704721B14C
:10150000028842F00102028004E002884FF6FE7376
:101510001A40028070470146888E704730B50246F7
:10152000002000230024158A05EA0103958905EAB5
:10153000010413B10CB1012000E0002030BD1AB14C
:1015400083890B43838102E083898B4383817047C6
:10155000002202881D4B98420ED01D4B98420BD0A2
:10156000B0F1804F08D01B4B984205D01A4B9842DF
:1015700002D01A4B984204D14FF68F731A404B8811
:101580001A43174B984207D0164B984204D04FF697
:10159000FF431A40CB881A4302808B8883850B88CF
:1015A00003850A4B98420BD0094B984208D00E4B4A
:1015B000984205D00D4B984202D00D4B984201D174
:1015C0000B7A03860123838270470000002C0140C0
:1015D000003401400004004000080040000C0040BE
:1015E0000010004000140040004001400044014051
:1015F0000048014010B540F22551064800F034F88B
:10160000012806D101F0E0F940F22551014800F02F
:1016100003F810BD0038014010B50022002340F649
:101620006A14A14200D100BF0A1201249440A3B25F
:10163000DC43048010BD21B1828942F400528281D2
:1016400004E082894DF6FF731A408281704702469A
:101650000020B1F5007F00D100BF13880B400BB113
:10166000012000E00020704770B5024600240023EE
:101670000025002040F66A16B14200D100BFC1F338
:10168000421501F01F03012606FA03F3012D02D1D2
:101690009689334006E0022D02D1168A334001E0DC
:1016A000968A33400C12012606FA04F41688344058
:1016B00013B10CB1012000E0002070BDF0B503466D
:1016C000002400260025002040F66A17B94200D108
:1016D00000BF1846C1F3421401F01F06012707FAA4
:1016E00006F5012C01D10C3004E0022C01D11030A0
:1016F00000E014301AB107682F43076002E0076862
:10170000AF430760F0BD00002DE9F04786B0054605
:101710000E460024A24600BFA1460027B08900B1B2
:1017200000BF2F462C8A4CF6FF700440F08804431B
:101730002C82AC894EF6F3100440B08831890843FE
:10174000718908430443AC81AC8A4FF6FF400440E2
:10175000B0890443AC8201A8FFF796F91F4887427D
:1017600002D1DDF810A001E0DDF80CA0A88900F49A
:10177000004040B10AEBCA0000EB0A103168490092
:10178000B0FBF1F807E00AEBCA0000EB0A10316881
:101790008900B0FBF1F86420B8FBF0F004012009E7
:1017A000642101FB1089A88900F4004040B1322077
:1017B00000EBC900B0FBF1F000F00700044308E0C3
:1017C000322000EB09106421B0FBF1F000F00F00B3
:1017D00004432C8106B0BDE8F087000000380140CA
:1017E00001468888C0F308007047C1F30802828070
:1017F000704700BFFEE700000FB4054B10B503A90A
:10180000044A029800F0DAF810BC5DF814FB0000FE
:10181000552100080C00002002E008C8121F08C172
:10182000002AFAD170477047002001E001C1121F61
:10183000002AFBD1704700002DE9FF5F82B0002134
:10184000DDE90430020DDDF840B0034318D044F662
:101850001050A2F2FF3242431514119801281FD0F4
:10186000A5EB0B00401C5FEA000A4FF000064E4F4C
:10187000DFF83891B046504615D5CAF1000413E0A0
:10188000119801244AA3012801D16FEA0B010298A3
:10189000119AC0E90031C0E9024206B0BDE8F09FEC
:1018A000CBF10000DFE704460021404A491842EB33
:1018B0000450CDE9001012E0E00707D032463B4665
:1018C00040464946FEF707FD8046894632463B467C
:1018D00010461946FEF7FFFC06460F466410002C22
:1018E000EAD1DDE90401DDE90023BAF1000F06DAEF
:1018F000FEF7F1FC42464B46FEF7EDFC05E0FEF735
:101900005CFD42464B46FEF758FD04460E4600225B
:10191000284BFEF7AFFE03D84FF0FF30014607E03B
:101920000022254B20463146FEF72EFCFEF789FEAD
:10193000102409E0002C0ADB0A220023FEF7C2FD76
:10194000039B30321A55641E50EA0102F2D1641C26
:10195000039AC4F111031444119A012A03D00122FD
:1019600008430DD10AE0084304D000204FF0110BCA
:10197000119072E7A3EB0B056D1E0DE05B4504DDD6
:101980004FF0000205F1010504E003DA4FF0000218
:10199000A5F10105002AECD002981199C0E90231A5
:1019A000C0E9004579E70000000014400000F03F66
:1019B000300000000000F0430000E03F2DE9FF4F41
:1019C00095B09A46884606460025EEE1252877D14F
:1019D00000242746F94A0121039400E0044316F845
:1019E000013F203B01FA03F01042F7D130782A285A
:1019F00011D06FF02F033078A0F13002092A16D8E9
:101A0000039A44F0020402EB820203EB4202104408
:101A1000761C0390EFE758F8042B0392002A03DAB0
:101A2000504244F40054039044F00204761C307891
:101A30002E2816D116F8010F44F004042A280DD0E0
:101A40006FF02F023078A0F13003092B09D807EB93
:101A5000870302EB4303C718761CF3E758F8047BAF
:101A6000761C30786C280FD006DC4C2817D06828FC
:101A70000DD06A2814D104E0742810D07A280FD130
:101A80000DE044F400140AE044F4801401E044F44E
:101A900040147278824202D104F58014761C761CC0
:101AA000307866280BD013DC582877D009DC002862
:101AB00075D04528F6D04628F4D047281AD193E1AE
:101AC00018E0632835D0642879D0652812D18BE1DD
:101AD000702873D008DC6728F1D069286FD06E2891
:101AE0000DD06F2806D1ACE073282CD0752874D0A7
:101AF000782853D05246179990476D1C54E1C4F38F
:101B00000250022809D003280DD0D8F8001004286C
:101B10000DD00D6008F1040846E1D8F80010EA176E
:101B2000C1E90052F6E7D8F800100D80F2E70D7019
:101B3000F0E718F8041B8DF8001000208DF8010064
:101B4000EB46012003E058F804BB4FF0FF3061077B
:101B50004FF0000102D40DE009F101018946B942BC
:101B60000FDA8145F8DB1BF809100029F4D108E0F1
:101B700009F1010189468142FADB1BF809100029AD
:101B8000F6D103985346A0EB090721463846179A29
:101B900000F080FA284400EB090507E044E008E182
:101BA0000DE01BF8010B524617999047B9F1010956
:101BB000F7D2534621463846179AF2E039E00A2117
:101BC000C4F302524FF0000B0091022A06D058F8DD
:101BD000040BC117032A09D00AE023E008F107002B
:101BE00020F00702F2E80201904605E000B2C117BA
:101BF000042A01D140B2C117002906DA0A460021A1
:101C0000404261EB02012D2202E0220504D52B2285
:101C10008DF80420012203E0E20701D02022F7E73B
:101C2000914657E00A2100E010214FF0000B00918F
:101C30000BE010214FF0000B44F004040827009142
:101C400003E008204FF0000B0090C4F30252022A78
:101C500005D058F8040B0021032A08D008E008F149
:101C6000070020F00702F2E80201904603E080B28C
:101C7000042A00D1C0B24FF0000922072AD53278D9
:101C8000702A07D0DDF800C08CF0100C5CEA0B0C59
:101C900005D00EE040228DF80420012208E050EA31
:101CA000010306D030238DF804308DF80520022280
:101CB0009146009B83F0080353EA0B030AD150EAD4
:101CC000010201D1620705D530228DF804204FF0C2
:101CD00001097F1E3278582A04D039A20C920CAA2E
:101CE00002920BE03BA2F9E75B46009AFEF7EAFBA3
:101CF0000C9B9B5C029A521E0292137050EA0102E6
:101D0000F2D1029804A9081A00F1200B600702D54D
:101D100024F4803400E001275F4502DDA7EB0B00CF
:101D200000E0002000EB0B01009003984944401AAA
:101D30000390E00306D453462146179A039800F017
:101D4000A9F90544002706E001A85246C05D17998D
:101D500090476D1C7F1C4F45F6DBE0030CD55346C6
:101D60002146179A039800F095F9054404E03020C5
:101D70005246179990476D1C0099481E0090002903
:101D8000F5DC08E00298029952460078491C02915D
:101D9000179990476D1CBBF10001ABF1010BF1DC11
:101DA0005BE100F065F90544761C307800287FF48B
:101DB0000DAE19B02846BDE8F08F000009280100DB
:101DC00030313233343536373839616263646566B1
:101DD0000000000030313233343536373839414273
:101DE0004344454600000000600700D4062708F180
:101DF000070020F00700F0E80223804603F0004CC3
:101E00005FEA0C0001D097A009E0200501D596A05B
:101E100005E0E00701D095A001E0AFF24C0013907F
:101E2000307823F0004365280CD006DC452809D023
:101E300046281DD047287FD13BE0662818D0672868
:101E40007AD136E00021112F01DB112000E0781C4F
:101E5000CDE9000104A90CA8FFF7EEFCDDE90D01B6
:101E60000C9A4FF0000B07F10109109200914EE01F
:101E70004FF000400097CDE9011004A90CA8FFF72E
:101E8000DBFCDDE90D020C9B0F994FF0000B914636
:101E90001093009211B9791C00EB0109B7EB09000E
:101EA00003D4C0F1FF3B07F10109A9EB0700019042
:101EB00042E0012F00DA01270021112F01DD11205E
:101EC00000E03846CDE9000104A90CA8FFF7B4FCF6
:101ED000DDE90D010C9A00914FF0000BB94610920C
:101EE00021070FD4009A4A4503DA914601E0A9F18F
:101EF0000109B9F1010F05DD109AA9F10101515C49
:101F00003029F4D0B84202DA10F1040F03DA0121CB
:101F1000CDE9011010E0002803DC8344A9EB0001A7
:101F200002E0411C494500DD8946A0EB0B00401C46
:101F300001904FF000400290200705D401984845D9
:101F400002DB4FF0FF30019000208DF84B0002982B
:101F50000DF14B07B0F1004F25D002200C902B2043
:101F60000D90029800280CDA404202902D200D902E
:101F700007E00A210298FEF78FFA3031029007F845
:101F8000011D0C99481E0C900029F2DC02980028D3
:101F9000EFD1791E0D980870307800F0200040F0E5
:101FA000450007F8020D11A8C01BC01D0290139830
:101FB000007800B1012000EB0901019801EBE0710C
:101FC000029801440398401A401E0390E00306D48F
:101FD00053462146179A039800F05CF8054413987D
:101FE000007818B15246179990476D1CE00323D52D
:101FF00053462146179A039800F04CF805441BE01D
:10200000BBF1000F07DB0098584504DD10981799C5
:1020100010F80B0001E017993020524690470198C4
:102020000BF1010B401E05F10105019004D12E209A
:102030005246179990476D1CB9F10001A9F10109A9
:10204000DEDC05E017F8010B5246179990476D1C2E
:102050000299481E02900029F4DC53462146179A43
:1020600003989EE62D0000002B00000020000000D9
:102070002DE9F041044600251E461746880404D485
:1020800005E039462020B0476D1C641EF9D528466E
:10209000BDE8F0812DE9F041044600251E4690463A
:1020A000C80301D5302700E02027880404D505E0C7
:1020B00041463846B0476D1C641EF9D52846BDE838
:1020C000F081000010B56FF00400FFF7CDF80A486A
:1020D00000680A49B0FBF1F0094908700846007829
:1020E00000EB4001C1EBC0104FF6FF7101EAC000E8
:1020F0000449088010BD00008000002000127A0012
:10210000080000200A0000200146114A12884A43B4
:102110004FF0E0235A6100229A611A46126942F098
:1021200001021A6100BF4FF0E022106900F00102C5
:102130001AB100F48032002AF5D04FF0E022126983
:1021400022F001024FF0E0231A6100229A617047E9
:102150000A00002013B50C4601226946104600F023
:1021600021FC00981CBD000038B53BA00068009021
:102170003A4800680079202806D13848006840793C
:1021800030383749C8710DE034480068407930383C
:10219000324909680979303901EB810100EB4100CE
:1021A0002F49C8712D480068807A30382B4909685A
:1021B000497A303901EB810100EB410028498880E0
:1021C0002648006800788DF80000244800684078B0
:1021D0008DF801002148006880788DF80200012404
:1021E00009E0204850F824106846FDF7BFFF00B909
:1021F00003E0601CC4B20C2CF3DD00BF18488471EE
:10220000194800684078303817490968097830392A
:1022100001EB810100EB4100114908701248006890
:102220000079303810490968C978303901EB8101EB
:1022300000EB41000A4948700B480068C07930380B
:10224000094909688979303901EB810100EB4100C6
:102250000349887038BD0000202020003400002091
:10226000A8100020440000203000002000F000F8FA
:102270000EB50024FFF726FF4FF4A060FEF7CCFB5D
:102280004FF46121012000F0EDF9FEF741FAFEF76D
:10229000FDFD032000F074F835E0FFF765FF601CDA
:1022A000C4B2642094FBF0F100FB114038B9164829
:1022B000006808B9012000E00020134908600A20E6
:1022C000FFF722FF114800880A281CD100200F497F
:1022D00008800F48006808B9012000E000200C4980
:1022E00008600C4800780C4909780C4A1278CDE94E
:1022F000002102900A4803780A4802780A480188B7
:102300000AA0FFF779FAC8E7A001214206000020E1
:10231000888122423A000020390000203800002045
:102320003F0000203E0000203C000020525443208B
:1023300054696D653A323025642D25642D2564205D
:1023400025643A25643A25640D0A0000FEB5064668
:102350000C461546032E10D101210220FEF76EFB1C
:10236000ADF80440ADF800500020ADF80600ADF81F
:10237000020069460148FFF7EBF8FEBD000400408B
:1023800010B50446032C0DD141F61F4241F28731AE
:102390002046FFF7DBFF204600F00CF80121034840
:1023A000FFF7ADF800200249088010BD000400408E
:1023B0000600002038B50446032C13D11D208DF8EB
:1023C000000002208DF8010003208DF8020001209A
:1023D0008DF803006846FEF7E7FA0122114602482D
:1023E000FFF7ADF838BD0000000400407FB505469A
:1023F0000C46012D19D101218003FEF72FFB00941B
:102400000020ADF80400ADF80600ADF80800ADF806
:102410000C000C20ADF80A0069463C48FFF774F93F
:1024200001213A48FFF707F96EE0022D19D1012189
:102430004804FEF713FB00940020ADF80400ADF84B
:102440000600ADF80800ADF80C000C20ADF80A004D
:1024500069462F48FFF758F901212D48FFF7EBF89F
:1024600052E0032D19D101218804FEF7F7FA0094F8
:102470000020ADF80400ADF80600ADF80800ADF896
:102480000C000C20ADF80A0069462248FFF73CF921
:1024900001212048FFF7CFF836E0042D19D10121A2
:1024A000C804FEF7DBFA00940020ADF80400ADF894
:1024B0000600ADF80800ADF80C000C20ADF80A00DD
:1024C00069461548FFF720F901211348FFF7B3F8D3
:1024D0001AE0052D18D101210805FEF7BFFA009476
:1024E0000020ADF80400ADF80600ADF80800ADF826
:1024F0000C000C20ADF80A0069460848FFF704F903
:1025000001210648FFF797F87FBD00000038014021
:102510000044004000480040004C00400050004093
:1025200038B50446012C1BD101210420FEF796FA90
:102530006002ADF8000003208DF8020018208DF82D
:10254000030069464348FEF77DF9A002ADF800009C
:1025500004208DF8030069463E48FEF773F978E0E1
:10256000022C1BD101210420FEF778FA0420ADF8DB
:10257000000003208DF8020018208DF80300694642
:102580003448FEF75FF90820ADF8000004208DF80C
:10259000030069462F48FEF755F95AE0032C1DD178
:1025A00001210820FEF75AFA4FF48060ADF80000D0
:1025B00003208DF8020018208DF803006946264894
:1025C000FEF740F94FF40060ADF8000004208DF8EC
:1025D000030069462048FEF735F93AE0042C1BD188
:1025E00001211020FEF73AFA2002ADF80000032086
:1025F0008DF8020018208DF8030069461748FEF791
:1026000021F96002ADF8000004208DF8030069464E
:102610001248FEF717F91CE0052C1AD101213020D1
:10262000FEF71CFA4FF48050ADF8000003208DF83F
:10263000020018208DF8030069460848FEF702F9E9
:102640000420ADF800008DF8030069460448FEF749
:10265000F9F838BD00080140000C014000100140AD
:102660000014014070B504460D46012C0AD12046E5
:10267000FFF756FF29462046FFF7B8FE204600F038
:102680003FF836E0022C0AD12046FFF749FF2946E1
:102690002046FFF7ABFE204600F032F829E0032C7D
:1026A0000AD12046FFF73CFF29462046FFF79EFE51
:1026B000204600F025F81CE0042C0AD12046FFF744
:1026C0002FFF29462046FFF791FE204600F018F81C
:1026D0000FE0052C0AD12046FFF722FF29462046AD
:1026E000FFF784FE204600F00BF802E001A0FFF7A0
:1026F00083F870BD6572726F7221200D0A000000B0
:1027000038B5044600200090012C14D125208DF806
:10271000000003208DF801008DF8020001208DF8E3
:1027200003006846FEF740F9012240F22551304887
:10273000FEF7C4FF5AE0022C14D126208DF80000C9
:1027400003208DF801008DF8020001208DF80300B0
:102750006846FEF729F9012240F225512548FEF787
:10276000ADFF43E0032C14D127208DF80000032097
:102770008DF801008DF8020001208DF803006846F5
:10278000FEF712F9012240F225511B48FEF796FF91
:102790002CE0042C14D134208DF8000003208DF897
:1027A00001008DF8020001208DF803006846FEF755
:1027B000FBF8012240F225511048FEF77FFF15E09B
:1027C000052C13D135208DF8000003208DF8010071
:1027D0008DF8020001208DF803006846FEF7E4F84A
:1027E000012240F225510648FEF768FF38BD00007F
:1027F000003801400044004000480040004C0040C8
:102800000050004070B504460025012C0BD100BFDC
:102810002348008800F020000028F9D02048001D3F
:102820000088C5B23AE0022C0BD100BF20211D4820
:10283000FEF70DFF0028F9D01A48FEF7D1FFC5B208
:102840002CE0032C0BD100BF20211748FEF7FFFE20
:102850000028F9D01448FEF7C3FFC5B21EE0042CCF
:102860000BD100BF20211148FEF7F1FE0028F9D05E
:102870000E48FEF7B5FFC5B210E0052C0BD100BF26
:1028800020210B48FEF7E3FE0028F9D00848FEF7A8
:10289000A7FFC5B202E007A0FEF7AEFF284670BD55
:1028A000003801400044004000480040004C004017
:1028B000005000406572726F7221200D0A00000006
:1028C0002DE9F04107460C461546002606E001209A
:1028D000FFF798FF04F8010B701C86B2AE42F6DBDE
:1028E0000120BDE8F081000070B504460D46012CC2
:1028F0000BD100BF40212348FEF7A9FE0028F9D0E4
:1029000029462048FEF771FF3AE0022C0BD100BFA8
:1029100040211D48FEF79BFE0028F9D029461A48A1
:10292000FEF763FF2CE0032C0BD100BF40211748BA
:10293000FEF78DFE0028F9D029461448FEF755FF12
:102940001EE0042C0BD100BF40211148FEF77FFE92
:102950000028F9D029460E48FEF747FF10E0052C65
:102960000BD100BF40210B48FEF771FE0028F9D0C3
:1029700029460848FEF739FF02E007A0FEF73CFFB2
:10298000012070BD00380140004400400048004074
:10299000004C0040005000406572726F7221200DA3
:1029A0000A0000002DE9F04107460D4616460024B6
:1029B00005E0295D3846FFF797FF601C84B2B442FA
:1029C000F7DB0120BDE8F0811FB5002002900390E5
:1029D0000CA103C9CDE90001062202A90120FFF7DD
:1029E0006FFF9DF80800552805D1062202A9012095
:1029F000FFF7D8FF04E0062269460120FFF7D2FF67
:102A00001FBD00006572726F7200000000030306B4
:102A100001040602050003051F1C1F1E1F1E1F1FA9
:102A20001E1F1E1F4D6172202039203230323300AC
:102A300032323A34393A3237000000004E554C00F9
:102A40004665620044656300417567004A756C0025
:102A50004A616E004A756E00536570004D617200E8
:102A6000417072004F6374004E6F76004D617900C3
:102A7000902A000800000020A80000001818000894
:102A8000382B0008A80000201014000028180008A7
:102A90000000000000000000000000000000000036
:102AA0000000000000000000000000000000000026
:102AB0000000000000000000000000000000000016
:102AC000302A0008242A000800000000000000004E
:102AD000000000003C2A0008502A0008402A000894
:102AE0005C2A0008602A00086C2A0008542A0008A2
:102AF0004C2A0008482A0008582A0008642A0008BE
:102B0000682A0008442A00080000000000000000B5
:102B100000A24A04000000000000000001020304BB
:102B20000607080900000000010203040102030473
:082B300006070809020406086B
:0400000508000131BD
:00000001FF
